:1038000033C0000041C000003FC000003DC00000C8
:103810003BC0000039C0000037C0000035C00000C8
:1038200033C0000031C000002FC000002DC00000D8
:103830002BC0000029C0000027C0000025C00000E8
:1038400023C0000021C0000007C100001DC000000F
:103850001BC0000019C0000017C0000015C0000008
:1038600013C0000011C0000011241FBECFEFD4E030
:10387000DEBFCDBF21E0A0E0B1E001C01D92AE32BD
:10388000B207E1F71AD145C3BBCF20912C0130918B
:103890002D0180912A0190912B0128173907A9F356
:1038A000E0912A01F0912B01808120912A01309131
:1038B0002B012F5F3F4F30932B0120932A01209142
:1038C0002A0130912B012A52314030F02BE031E0B7
:1038D00030932B0120932A0108958F929F92AF92EB
:1038E000BF92CF92DF92EF92FF928090070190906B
:1038F0000801A0900901B0900A0120E230E07501B2
:103900006401C626D726E826F926B594A79497948D
:1039100087949695879577956795C0FE04C047E193
:10392000842645EA94262150310949F780920701FF
:1039300090920801A0920901B0920A01FF90EF90C5
:10394000DF90CF90BF90AF909F908F90089520917F
:1039500084003091850082179307C8F71092850084
:103960001092840008950F931F93CF93DF938C01DF
:10397000419A3998409A3898429A80E090E0E7DF7F
:10398000C1E1D7E286B18370833031F08EE490E0FC
:10399000DEDF2197B9F71CC088EE94E0D8DF389AB3
:1039A000399A409841988DE990E0D1DFC0E1D0E0AC
:1039B00000FF02C0419A01C041988DE990E0C7DF45
:1039C000169507952197A1F7419A8DE990E0BFDF01
:1039D000DF91CF911F910F9108950F931F93CF9374
:1039E000DF93C1DF419A399880E090E0B0DF8DE944
:1039F00090E0ADDF4298C0E0D0E0319B0BC0219653
:103A0000C13187E2D807CCF3389A409A429A8FEFB7
:103A10009FEF1DC08EE490E09ADF3199EECF8DE9E3
:103A200090E095DF00E110E0C0E0D0E0D695C795CA
:103A30003199D0688DE990E08ADF01501109B1F722
:103A40008DE990E084DF429A389A409ACE01DF9166
:103A5000CF911F910F9108951F920F920FB60F9261
:103A600011242F938F939F93EF93FF93E0912C0159
:103A7000F0912D018091C600808380912C0190915E
:103A80002D01019690932D0180932C0180912C01A2
:103A900090912D018A52914030F08BE091E090930B
:103AA0002D0180932C01FF91EF919F918F912F9188
:103AB0000F900FBE0F901F901895A1E0B1E0E2E6C5
:103AC000FDE1FCC181E0809381003A9A88B18F606A
:103AD00088B980E797E124EF31E0F9013197F1F7F8
:103AE0000197D9F70EE110E024EFE22EFF24F394C2
:103AF00088EE93E0F7013197F1F70197D9F782E06B
:103B000092E66BDF8230924719F00150110981F77C
:103B100080E091E662DF00E010E0F8018491482F38
:103B200050E060E070E00E5F1F4F3196249130E06E
:103B3000F22FEE27CF01FF0FAA0BBB0B842B952B87
:103B4000A62BB72B4ADF003C110539F782E092E63D
:103B500044DF81EC93E641DF81EC93E63EDF582FB2
:103B60004427052E000C660B770B416C6F6F7F6F3F
:103B70004093030150930401609305017093060183
:103B80004C01F1EF8F1AFDEF9F0A9924C40194664E
:103B900024DF80EA9DE021DF8C0188EF9FEFA0E029
:103BA000B0E08093070190930801A0930901B093BE
:103BB0000A01809202011093010100930001B0E418
:103BC0004B2E55245A94652CBDEF7B2E83E0282E76
:103BD000312CEE27FF27E419F509E4918E2F90E0B0
:103BE000A0E0B0E0E1E0F0E0E419F5092491E2E0C2
:103BF000F0E0E419F509E491CE2ED12CE12CF12C62
:103C00007601DD24CC24D22AC82AD92AEA2AFB2A22
:103C1000F101E419F509E491FE2AC701B6015DDE60
:103C2000209103013091040140910501509106015A
:103C300063E775E684E69FE628D1DC01CB010196B7
:103C4000A11DB11D8093030190930401A093050170
:103C5000B09306012FE6822724E6922725E6A227C5
:103C600024E6B22784259525A625B725C826D9267A
:103C7000EA26FB26C601B1DEC701AFDE44E0441AE6
:103C800051086108710880EF481687EC58068FEFDD
:103C900068068DEF780609F09CCF85E690E09DDE02
:103CA00085E690E09ADE7FE1E72EF12CE4EFCE2E60
:103CB000DD24D39485E690E090DE8537910561F0B0
:103CC00091E0E91AF10841F088EE93E0F6013197AE
:103CD000F1F70197D9F7EECF86E690E07EDE9C0102
:103CE0002227C801110FAA0BBB0B820F931FA11D26
:103CF000B11DBA2FA92F982F8827AF6FBF6FBC01B6
:103D0000CD01680D791D811D911DE7DD80910701B1
:103D10009091080162DE80E395E724EF31E0F9013C
:103D20003197F1F70197D9F781E085BF82E085BF30
:103D300078948BE091E090932D0180932C019093E7
:103D40002B0180932A0188E98093C10087E2809348
:103D5000C4001092C50003E0DD24D39445E0C42ED6
:103D600051E1952E92DD182F90E0FDDDE0EFAE16CB
:103D700039F0AB2CCF5FDE4FB880C150D14011C0BD
:103D8000FDE7BF12F6CFCF5FDE4F2881C150D14093
:103D9000273469F0CF5FDE4FB880C150D1402DE7A6
:103DA000A22ECF5FDE4F1883C150D140DBCF12343B
:103DB00019F037E4B32EF3CF68DD81111CC065DD47
:103DC00040E1849F7001112460DDE82A81E090E0E9
:103DD0008C0F9D1FE80EF91E58DD87FDEACFB82E27
:103DE000B29490EFB92251DD87FDE3CF8B29F70123
:103DF00081937F01F1CF8130E1F647DDF0E18F9FC4
:103E00007001112442DD9701282B322F2227CE0189
:103E10000196A0E0B0E07D01E20EF31EF894F9995E
:103E2000FECFF70100935700E89507B600FCFDCFE1
:103E300040E050E05C01A40EB51EF50160812A014E
:103E40004E0C5F1CB18070E07B29F2010B01D09217
:103E50005700E89511244E5F5F4F4038510551F7E8
:103E6000A058BF4FF701C0925700E89507B600FC75
:103E7000FDCF789480589F4FA115F1E0BF0709F05E
:103E8000CACF90925700E89594CFDB018F939F9310
:103E90000BD0BF91AF91A29F800D911DA39F900D5C
:103EA000B29F900D1124089525D0A59F900DB49F29
:103EB000900DA49F800D911D112408952F923F9283
:103EC0004F925F926F927F928F929F92AF92BF922A
:103ED000CF92DF92EF92FF920F931F93CF93DF93D6
:103EE000CDB7DEB7CA1BDB0B0FB6F894DEBF0FBE33
:103EF000CDBF0994A29FB001B39FC001A39F700DD5
:103F0000811D1124911DB29F700D811D1124911DE1
:063F10000895F894FFCFB4
:0400000300003800C1
:00000001FF
