:101800003BC06FC054C053C052C051C050C04FC045
:101810004EC04DC04CC04BC04AC049C048C047C074
:1018200046C045C044C009021200010100803209CF
:10183000040000000000000012011001FF00000879
:10184000C016DC050201010200010E035500530021
:1018500042006100730070001C037700770077007E
:101860002E00660069007300630068006C002E00A3
:10187000640065000403090411241FBECFE5D4E011
:10188000DEBFCDBF10E0A0E6B0E0E8EAFFE102C0B5
:1018900005900D92A636B107D9F720E0A6E6B0E094
:1018A00001C01D92AD39B207E1F754D17BC3A8CF77
:1018B000A82FB92F80E090E041E050EA609530E039
:1018C00009C02D9182279795879510F08427952739
:1018D000305EC8F36F5FA8F30895EADF8D939D93A0
:1018E0000895CF93CFB7CF93C395849BE9F7849B9B
:1018F00009C0849B07C0849B05C0849B03C0849B54
:1019000001C0A1C0DF93C0918000DD27C957DF4F20
:10191000849B02C0DF91EBCF2F930F931F9300B3F3
:101920002FEF04FB20F94F933F9310B34FEF0127A4
:1019300004FB21F93BE031C04E7F012F10B3216041
:1019400028C0102F4D7F2260000000B329C04B7FBC
:101950002460012F000010B32BC010B3477F286014
:101960002AC04F7E00B320612CC04F7D10B320628F
:101970002FC04F7B00B3206432C0422700B349938D
:101980004FEF0000102714FB20F910B31471C9F1B8
:10199000297F91F2012704FB21F900B3237F89F20B
:1019A000315058F1102714FB22F910B3277E79F239
:1019B000012704FB23F92F7C81F200B3102714FBCD
:1019C00024F92F7971F200C010B3012704FB25F927
:1019D0002F7359F200C000B3102714FB26F92230F0
:1019E00040F200C010B3012704FB27F9243028F689
:1019F0004F77206810B30000F9CF10E41ABF00271A
:101A000017C03B503195C31BD04010E41ABF08816A
:101A1000033CE9F00B34D9F020917E001981110FBD
:101A20001213EDCF093641F10D3211F0013E39F7B5
:101A3000009385003F914F911F910F912F91DF915E
:101A4000CAB7C6FD51CFCF91CFBFCF911895209186
:101A50008500222379F310918300112311F534308E
:101A600012F13093830020937F00109180003BE0BF
:101A7000311B3093800017C00091830001308CF43B
:101A80000AE53091610034FD10C000936100C3E7A6
:101A9000D0E00FC02795A8F45150A9F4220F000000
:101AA000F9CF4AE503C042ED01C0432FC4E1D0E0C5
:101AB00032E011B31461949A11BB02B320E414E133
:101AC0005F93012756E002BB279520F4515021F483
:101AD000220FF9CF012756E000003B5A02BBD0F29B
:101AE000279528F4515029F4220F0000F9CF01273F
:101AF00056E0279502BB20F4515021F4220FF9CF74
:101B0000012756E02991332302BB21F60B7E109169
:101B10008400110FC651D04002BB11F010937E001B
:101B200010E41ABF006111B31B7E402F4B7E5F9102
:101B300000C000C002BB11BB42BB7CCF12BAF894FC
:101B40001BBE15BE81E08BBF1BBEE0916A00F09109
:101B50006B0009950FB6F894A89581B5886181BD91
:101B600011BC0FBE979A04B601FEE8DF14BE81E0F7
:101B70008BBF82E08BBF8799F8CF85B7826085BF26
:101B80008BB780648BBF8C9A80E0815041F0A89520
:101B9000E7EBFBE03197F1F700C00000F6CF8C983F
:101BA0007894F12C00E010918300135017FD5BC175
:101BB00080918000CCE0D0E0C81BD109C957DF4F2D
:101BC00080917F008D3209F0C5C0183009F049C1FD
:101BD00083EC809373008AE5809361001092720019
:101BE0003881832F80769981882309F444C046E6A2
:101BF00050E050938200409381009330C9F49B8160
:101C00008C812A81203339F48370E82FF0E0EE597B
:101C1000FF4F808109C0203A11F4AFD105C0203CAC
:101C200011F46D81B2D180E08093690084E088C0B6
:101C3000953009F484C08CEF890F8630A8F44A816E
:101C40005B815093700040936F00993091F08E81CA
:101C500080936E002D81227020936D0090936C0014
:101C600037FD69C08FEF67C0923019F481E080932F
:101C7000710080E065C08A8110927C00911106C0DD
:101C800010927D002CE730E082E050C0953019F4CE
:101C9000809384003DC09630A9F59B81913019F462
:101CA00088E398E104C0923041F486E298E1909391
:101CB00082008093810082E121C09330F1F4811190
:101CC00008C084E798E1909382008093810084E0CB
:101CD00015C0813041F488E598E1909382008093AB
:101CE00081008CE10BC0823041F48AE498E190934A
:101CF0008200809381008EE001C080E090E49093A8
:101D000072001EC0983079F0993031F480938600CB
:101D10002CE730E080E00AC081E09A3009F080E0F2
:101D20002CE730E003C026E830E081E03093820009
:101D30002093810005C090E89093720008C081E074
:101D40009F81911104C09E81981708F4892F809378
:101D5000600087C08091720087FF83C080916E0011
:101D6000811708F4182F811B80936E00BB24B39455
:101D70008111B12C80916C00873010F4DE013DC0E0
:101D8000AC2ECC2EDD2E8C2D8A19811708F039C08F
:101D9000F60161916F0180916F00909170009C013C
:101DA0002F5F3F4F3093700020936F00EED0EBCF4A
:101DB00080916F00909170008F739927892B31F17A
:101DC000F894E0916F00F09170002D913D9181E0C9
:101DD000090180935700E8951124789480916F0051
:101DE0009091700002969093700080936F008F73B3
:101DF0009927892B09F1B11017C08A2F8C1B8117E5
:101E0000B8F2BB2071F1109260002BC0F894E09101
:101E10006F00F091700083E080935700E89578940C
:101E200007B600FCFDCFCCCF8A2F8C1B811728F37F
:101E300080916D00882309F3F894E0916F00F09190
:101E40007000329785E080935700E895789407B644
:101E500000FCFDCFF89481E180935700E8957894D9
:101E6000CCCF109283008091610084FF6FC080917D
:101E700060008F3F09F46AC0C82F893008F0C8E0BD
:101E80008C1B809360009091730088E88927809371
:101E90007300CC2309F44EC08091720087FF2CC0E0
:101EA00080916E008C1708F4C82F8C1B80936E00F5
:101EB000D0916C0084E7C82E80E0D82E84E790E0B3
:101EC000EC2DE81BEC17B0F5A0906F00B0907000FF
:101ED000D73018F0C50151D002C0F5018491F60148
:101EE0008083FFEFCF1ADF0A2FEFA21AB20AB09257
:101EF0007000A0926F00E2CF20918100409182009B
:101F00003C2F320FA4E7B0E086FF08C0E22FF42F89
:101F100084918D9331963E13FBCF08C0822F942F6E
:101F2000FC0181918D93CF013E13FACFF093820093
:101F3000E09381006C2F84E790E0CFDCCC5FCC3065
:101F400019F08FEF80936000C093610084E190B33B
:101F5000947131F48150D9F71092840010927E0070
:101F600080917100882331F0015021F4FA94FF2010
:101F700009F4FBCD879B17CEF8CDE199FECF9FBB2F
:101F80008EBBE09A99278DB30895262FE199FECF55
:101F90009FBB8EBB2DBB0FB6F894E29AE19A0FBEA1
:081FA00001960895F894FFCFAB
:061FA800FF5A1E93070022
:0400000300001800E1
:00000001FF
